:020000021000EC
:10B0000000400020A9D40100E9D40100EBD40100E4
:10B010000000000000000000000000000000000030
:10B02000000000000000000000000000EDD401005E
:10B030000000000000000000EFD40100F1D4010086
:10B0400011BE0100F3D40100A1C70100F3D4010037
:10B05000F3D4010000000000C1C20100F3D40100DC
:10B06000F3D40100F3D40100F3D40100F3D40100C0
:10B07000F3D40100F3D40100F3D40100F3D40100B0
:10B08000F3D401006DB40100F3D40100F3D4010046
:10B0900049B50100F3D40100A5D90100F3D40100A2
:10B0A000F3D40100F3D40100000000000000000010
:10B0B0000000000000000000000000000000000090
:10B0C00010B5064C2378002B07D1054B002B02D07E
:10B0D000044800E000BF0123237010BD6020002061
:10B0E0000000000090DA0100044B10B5002B03D0E3
:10B0F0000349044800E000BF10BDC0460000000046
:10B100006420002090DA0100402292029A1A9246AE
:10B110007047C046174B002B00D1134B9D46FFF7DD
:10B12000F3FF00218B460F461348144A121A00F011
:10B1300065F80E4B002B00D098470D4B002B00D02C
:10B1400098470020002104000D000D48002802D07F
:10B150000C4800E000BF00F02DF82000290001F0AD
:10B16000BDFC00F011F8C04600000800000000001F
:10B1700000000000004000206020002098220020F5
:10B180000000000000000000084B10B50400002B78
:10B1900002D0002100E000BF054B1868836A002B35
:10B1A00000D09847200000F031F8C04600000000B1
:10B1B00058DA010070B500260C4D0D4C641BA4102C
:10B1C000A64209D1002602F03BFC0A4D0A4C641B42
:10B1D000A410A64205D170BDB300EB5898470136C4
:10B1E000EEE7B300EB5898470136F2E7582000200D
:10B1F00058200020582000205C20002003008218E6
:10B20000934200D1704719700133F9E7FEE7C04659
:10B21000F8B54546DE4657464E46E0B5234B19780D
:10B220009846002929D0224B002401259946214F18
:10B23000214E03E00134E4B28C421ED23A68E300AE
:10B24000D0188246D05C2A00824033681A42F1D07E
:10B250009343336001F02AF853461A782B0049468D
:10B26000934009680B40010091408B420BD043464C
:10B2700001341978E4B28C42E0D3F0BCBB46B2464C
:10B28000A946A046F8BD53465B689B46002BEED00E
:10B290005146497801390B0059425941081A414237
:10B2A0004841C1B21000D847E1E7C0467C200020E9
:10B2B000A4200020AC200020A8200020F8B5124EC9
:10B2C0000400300000F0EAFC002807D10125A54069
:10B2D0000E4F3B681D4202D0AB433B60F8BD2000DF
:10B2E00000F0E4FF0A4A136800280BD1AB43136057
:10B2F0003B6800221D43074B300019683D6000F099
:10B300006DFCEBE72B43F2E784200020A82000200F
:10B31000A420002080200020F0B5CE46474680B50E
:10B3200006000D00140083B0042A36D900F066FE32
:10B3300000282DD01D4B1E4A1E601E4B1D701E4B3B
:10B340001C60002313601D4A6C1E1360E4B2002DC4
:10B3500025D01B4BE4009946032300279846341957
:10B3600001AD04E02300083BA64218D01C00434670
:10B370002B70A3784A46290020786F806B7000F00C
:10B3800047FE0028EED003B0C0BCB946B046F0BDC1
:10B3900000F000FE0028CDD0F5E70720F3E70021FC
:10B3A000084A094800F004FCEDE7C046AC20002044
:10B3B000A42000207C20002080200020A820002045
:10B3C000BDB2010011B201005CDA010070B5094D97
:10B3D0002B78002B0BD00024074E3268E300985CDA
:10B3E000012100F0D7FE2B780134A342F5D80020CC
:10B3F00070BDC0467C200020AC20002070B5094DF7
:10B400002B78002B0AD00024074E3268E300985CAA
:10B4100000F01CFF2B780134A342F6D8034800F05B
:10B420003DFC70BD7C200020AC200020842000204A
:10B43000002300B585B001AA906000210348138065
:10B44000536000F005F805B000BDC04601400000A3
:10B45000BFF34F8F034B044ADA60BFF34F8FC046F0
:10B46000FDE7C04600ED00E00400FA05A021F0B5BC
:10B470000023C6462B4A490000B5535004315350AF
:10B4800004315350043153504C395350043153500C
:10B49000254B1B68002B35D0244900265458244ADC
:10B4A000244F1268A41A002224029046240A02E0C3
:10B4B000002D18D02B001A68A24214D8A41AB6186E
:10B4C0001A7CDD69002AF3D0424699691A745A69D8
:10B4D0003B68002B19D0100098470028E8D0FFF7F0
:10B4E000A7FF002DE6D11449144A0B7812789A422E
:10B4F0000ED0134A9B009E5080218023114A5B008E
:10B500004903D15080BCB846F0BD08009047CFE752
:10B510000132D3B2022B01D00B70EAE700230B708B
:10B52000E7E7C04600100140D020002004050000DD
:10B53000CC200020B0200020C9200020C8200020FE
:10B54000C020002000E100E0F0B54546DE46574649
:10B550004E46E0B5CB4BCC4A1B68CC499846CC4B09
:10B560008DB01B68097807931378994200D167E181
:10B570000133DBB2022B00D160E11370C54A9B009E
:10B580009C5843461B191B021B0A9B465A46BD4B3F
:10B590001A60C14B09931E785B780393B34200D1C4
:10B5A0005BE101230493099B59465A689B789246B4
:10B5B0000193BA4B00250A931B78574608930593CD
:10B5C0000023A446B1460B91079A3100039E0693CF
:10B5D00002934B005B18DB00F8188246013101989A
:10B5E000C9B2081A441EA041FB5C40420140022B34
:10B5F00000D1B8E0032B07D1002A05D01574D26919
:10B60000002AFBD101230693B142E2D1029BBA4644
:10B6100064464E46002B00D0C6E1069B002B08D0A6
:10B620009B4B1A60079B07929B1A591E8B41DBB2FA
:10B630000693049B0025002B00D017E100239C46B5
:10B64000079F02930593002D2FD028006968AB68EF
:10B65000ED695A46924C8A1A1202120AA24256D830
:10B66000D31803606246426082600122027462461F
:10B67000C261002F67D03C683A009C425CD2A84669
:10B68000814603E01168994261D20C001500D2692D
:10B6900018001B1B002AF5D14846A9464546036001
:10B6A0004B46C261D861002DCFD1039B9E4200D191
:10B6B00026E1514673009B19019A0136F6B2B21A7F
:10B6C000501E8241DB00CC18CB5C52421640012B4D
:10B6D00066D16068027C002A62D18A46A1689046E1
:10B6E0004160E36883602269C2606269089C82618C
:10B6F00001220592002CACD04246002142605A46FD
:10B7000005948A1A664C1202120AA242A8D95A4615
:10B71000511A0902090A994202D25B1A0360A1E791
:10B720006346036043608360012303746346C3611F
:10B73000002F08D000233C68E31A3B600123C76157
:10B74000029307007FE70123070002937BE7049140
:10B7500029004546804648468946049909194446C9
:10B76000091B11609BE753465868002A00D14BE73C
:10B77000904200D129E113001C00DB69002B00D1AD
:10B7800042E79842F8D1A0424CD01868DB69824663
:10B79000E361002B00D137E718685044186033E7A5
:10B7A000039BB34286D11A00099B1A70029B002B9F
:10B7B00000D19FE0364B1F60079B9F4202D1069B42
:10B7C000002B25D0002F00D108E1364A3648374CEF
:10B7D00081585A468A1A12022578120A3B680332A7
:10B7E000002D00D193E0934226D3A8245B442E4839
:10B7F0001B021B0A2B4DE400035142595B1A521ADB
:10B800001202120A1B0203321B0A9A4200D9A4E058
:10B8100000230A9A13700DB0F0BCBB46B246A9468D
:10B82000A046F0BDD269002A00D1B1E003689A4673
:10B83000C36901200690AFE71300D6E700239CE61A
:10B84000154B09931E785B7803939E4200D1F9E073
:10B850000023C34600240493A5E6099B5A689B78FD
:10B86000924601930D4B0A931B780893079B002B7C
:10B8700000D1F5E000224746002100250020944633
:10B88000B04629E0CC200020C8200020C92000209C
:10B89000D0200020C0200020B4200020BC200020A8
:10B8A000FEFF7F000405000000100140BD200020C5
:10B8B000A41A80186246DE681A60DA69002E06D083
:10B8C000DD611D0039180902090A59609E600121D5
:10B8D000002A00D171E013001A68A242E8D9464656
:10B8E000002902D0604907930B60121B1A600123E4
:10B8F0000693A3E6069B079F002B00D188E761E72C
:10B90000059B002B00D151E7099B1E704EE7802557
:10B91000D1266D02B6008551403E8551C027802654
:10B92000524DB6027F00EE512E6001250560504851
:10B93000504F06682F20C046C046C046C046C0468D
:10B94000C046C046C046BE4200D0C0460138F2D113
:10B950002570934200D348E76EE7435945490351A8
:10B96000434B1A682F23C046C046C046C046C04657
:10B97000C046C046C0468A4200D0C046013BF2D114
:10B9800080238021394A5B008902D15040E71400AE
:10B9900001220020384B9A600B9001300692230060
:10B9A000002202900590F0E60A99059B33480B703F
:10B9B0000B9908938B4601602FE62B4B46461A6085
:10B9C000002307930133069338E6D0690028DED0C0
:10B9D00013001400020001200690D6E68021802387
:10B9E000224A8902D1508023D2210124224A5B02BB
:10B9F00089005350403953501D4B546019682F2310
:10BA00001C481D00C046C046C046C046C046C04691
:10BA1000C046C046814200D0C046013DF2D194608C
:10BA2000164A1760C046C046C046C046C046C0461B
:10BA3000C046C046814200D0C046013BF2D1104B07
:10BA40001F70E5E6099BC3465A689B7892460193AE
:10BA50000C4B00250A931B78089300230693EDE511
:10BA6000012300250693E9E5D020002000E100E055
:10BA7000542000200024F40000100140CC200020BD
:10BA8000BD200020BC200020F0B5DE4657464E46C3
:10BA900045460324E0B5070020009B4610402242A3
:10BAA00000D068E0002A00D165E080268025334C74
:10BAB000B6026651D2238026314D76029B00EE50AD
:10BAC000403BEE5001232F4E6B60994633682F2682
:10BAD0009C462D4B98463300C046C046C046C046E3
:10BAE000C046C046C046C046C44500D0C046013B23
:10BAF000F2D14B46AB60C046C046C046C046C046C9
:10BB0000C046C046C046C44500D0C046013EF2D142
:10BB10005B461E4E30701E4E336000261D4B188053
:10BB200099705A601C4B802218601C4BC5211E70F6
:10BB30001B4B52031E70C023FF265B00E25089009E
:10BB40006358B3433F3E33436350A123DB0022607D
:10BB50000439EF506358134A1A40C0231B021343A1
:10BB60006350114BEA58114B1A60F0BCBB46B24609
:10BB7000A946A046F0BD0720F7E7C04600E100E077
:10BB800000100140542000200024F400BD200020BB
:10BB9000B0200020B4200020D0200020C8200020A9
:10BBA000C9200020FF00FFFF04050000CC2000207A
:10BBB000094B5B68002B0AD0002A0AD0002808D065
:10BBC0000368187C002802D159745A617047082014
:10BBD000FCE70720FAE7C046B4200020F0B5C646CF
:10BBE00000B52A4F04007B680E00904682B0002BFF
:10BBF00041D000283FD0042945D94369002B3AD0D1
:10BC0000457C6A46013D6B425D410023D01D6D427B
:10BC1000D3710D4000F086F87878B978421CD2B222
:10BC2000891A4B1E99413B7849420A40934224D0DD
:10BC3000796843008C461B18DB006344002B1CD042
:10BC400001211348197013495C604158DE60996006
:10BC500041461D6159616B46D8797A7000F082F8CF
:10BC60008023802100200C4A5B004903D15002B0A0
:10BC700080BCB846F0BD0820F9E76B46D87900F0E3
:10BC800071F80420F3E70720F1E7C046B420002054
:10BC9000001001400405000000E100E030B51F4D38
:10BCA00004006B6883B0002B30D000282ED043698D
:10BCB000002B2BD000236A460374D01DD37100F0F3
:10BCC00031F86978AB784A1CD2B29B1A581E83416E
:10BCD0005B421A402B7893421AD04B005B1869687C
:10BCE000DB008C466344002B12D002215C6019708B
:10BCF0006B46D8796A7000F035F8802380210020E7
:10BD0000074A5B004903D15003B030BD0820FBE770
:10BD10006B46D87900F026F80420F5E7B42000201F
:10BD200000E100E0F0B5EFF3108172B60A4B5A68FB
:10BD3000002A0DD101248025084E5C607459084FFB
:10BD40003C401C6077510270002900D162B6F0BD02
:10BD500001230370F8E7C046D420002000E100E092
:10BD6000FC06FFBC10B5084B5A68002A0BD000280F
:10BD700009D1EFF3108272B604491C680C60586058
:10BD8000002A00D162B610BDD420002000E100E0FE
:10BD9000044BA0211A5C01239340A122C905D200C3
:10BDA0008B50704760DA0100044BA0211A5C01231C
:10BDB0009340034AC9058B507047C04660DA0100C2
:10BDC0000C050000A023E9210322DB05C9005A501D
:10BDD0000C495A5004315A500B495A5004315A50A8
:10BDE00080210A4AC9029950802109039950802173
:10BDF000490399508021890399508021C9039950A2
:10BE00007047C0464C070000540700000C050000B6
:10BE100010B51A4B1A68002A14D0002280211A602B
:10BE2000C2220123164CC90592008B506370A3688F
:10BE3000002B07D01A6800205B68A2609847A368AF
:10BE4000002BF7D10F4B1A68002A15D000221A6078
:10BE50008022C22302219B00D205D1500123084C2D
:10BE6000A3702369002B07D01A6801205B68226148
:10BE700098472369002BF7D110BDC0460001004050
:10BE8000DC2000200401004010B500280BD1064C36
:10BE9000A368002B07D01A6800205B68A26098474F
:10BEA000A368002BF7D110BDDC20002010B582B0B4
:10BEB0006A460023D01DD371FFF734FF144C23785A
:10BEC000002B0AD0E3680133E3600123A3706B46C3
:10BED000D879FFF747FF02B010BD6360A36023610C
:10BEE000E3600C4B1B68DB070CD501F0FDFC002860
:10BEF00005D18022A3230121D205DB00D1500123EB
:10BF00002370DFE70321002000F006F8EDE7C046CC
:10BF1000DC20002000E100E0F0B500281EDB1B4B18
:10BF200084089C460323C2B21840FC331F00C0267D
:10BF3000C000890187400B408340A4006444B600E0
:10BF4000A559BD432B43A3511F231A40C0211E3BBB
:10BF500093400E4A490053501360F0BD0C4C03252A
:10BF6000A4460F23FF240340C2B228402500C0008E
:10BF7000890185400C408440083B9B089B0063443A
:10BF8000DE69AE433443DC61DEE7C04600E100E039
:10BF900000ED00E070B54425154C665D002E25D1FE
:10BFA00001225242D3172260636001235B420321C6
:10BFB0000620A360E36023616361A361E361236200
:10BFC0006362A362E36223636363A363E363236443
:10BFD000FFF7A2FF074B80211E60C123064A9B008A
:10BFE0000906D15001230020635570BD0820FCE7ED
:10BFF000F02000207C610040006000404423034AA0
:10C00000D05C431E9841C0B27047C046F02000206B
:10C01000F0B5CE46474680B55B4C03002518203569
:10C020002E7808207F2E03D8C0BCB946B046F0BD9C
:10C03000C878814600286FD12069013000D19DE089
:10C040006069013000D190E008250627B800265825
:10C05000013628D0781C8446A8427DD2800026581C
:10C0600001367BD0B81C8446A84275D28000265881
:10C07000013673D0F81C8446A8426DD28000265841
:10C0800001366BD0381D8446A84265D28000265800
:10C09000013663D005370420AF42C5D2E5690135CA
:10C0A000C2D107271830E618B4462026B046C4444B
:10C0B000664622504A467DB23570002A02D1E71901
:10C0C0003C373B708A78002A2FD0A020C0058446D8
:10C0D000E02602279A006244F6009059B843905136
:10C0E000CA78002A2DD0294AA2209446AC00C0006C
:10C0F00064442258264D09782A4022501A02F82317
:10C100005B011A400B04C021890225580B401A43D9
:10C110002A432250002087E72068013020D0606841
:10C12000013028D00425022790E71A00A02648787D
:10C13000C132FF3292008000F6059051CA78002A81
:10C14000D1D12B1F5BB2E41840340B7822789B01CD
:10C1500013430020237067E7042065E76746A2E7E2
:10C160000020226028700025ACE7052005272870F4
:10C1700062610525A3E70127042094E704272261D3
:10C180002F703D009BE7C046F0200020006000407B
:10C19000FFE0FCFF0023F0B5294C22182032D356D3
:10C1A000032B20DD043B5BB2E31840331B789B0973
:10C1B000032B3AD0013B5A425341C022920294468B
:10C1C0005B421B0C1B046344A022D2059446E02270
:10C1D00080006044D20081581A4C2140815081581F
:10C1E0000B438350F0BDD8B20328FBD8164DA227CD
:10C1F000AC46012698006044FF00C5593543C5513F
:10C20000180065460027403040B2800080B2475198
:10C210000029E7D0127852B292001259002AE1D0D8
:10C220009E40C1239B00EE50DCE7A022A223D20552
:10C23000DB00D2580123C240134002331B04C3E782
:10C24000F0200020FFFFFCFF0060004010B5144B01
:10C250001B1820331B785BB2032B0DDDA023DB05FD
:10C260009C46E02380006044DB00C2580D490A4030
:10C27000C250C258C25010BDDAB2032AFBD80A4AD3
:10C28000A2249446012299006144E4000859904395
:10C290009A40C223085161469B00CA50EBE7C04652
:10C2A000F0200020FFFFFCFF00600040A022A2233E
:10C2B000D205DB00D358C340012018407047C04668
:10C2C000F0B55746DE464E4645460021E0B5C74A22
:10C2D00087B0039113680027012B00D194E1C44B70
:10C2E0001A68012A00D174E1C24B1A68012A00D1F0
:10C2F00063E1C14B1A68012A0DD0C04B1A68012AAC
:10C3000000D18CE1002F1ED107B0F0BCBB46B24675
:10C31000A946A046F0BDC122B94992008958082219
:10C320000A42EAD000211960B44B17431A68012A67
:10C3300009D11960A022A223D205DB00D3580393B0
:10C3400080231B061F43A223DB0099460323AD4C29
:10C350009B461C33A046012600259A463E4211D03A
:10C36000A74AAB0094464A466344985899584346B6
:10C370001B68002B06D05A46090C11405246000A91
:10C380001040984704239C4601357600E044042D74
:10C39000E4D1002FB8DA0023C02607250493013B1F
:10C3A00005934023E1564B1C3ED0C9B20800B04370
:10C3B000C3089C462A00012367460A40934005AA09
:10C3C000D25D134230D08A09934622182032127867
:10C3D00052B29200A2589146002A00D1A5E15A46D5
:10C3E000032A00D1A5E1A027FF05B84682009044AA
:10C3F000E0224746D200BA5803AF9203910F62463B
:10C40000BA5C13420DD002290ED15B46032B00D13A
:10C41000AFE1002398464B46002B07D05946C8474A
:10C4200004E0032900D18DE1002398464123E15621
:10C430004B1C38D0C9B20800B043C3089C462A0040
:10C44000012367460A40934005AAD25D13422AD0D1
:10C45000221820321278890952B29200A258019112
:10C460009146002A00D13CE1032900D13CE1A027FC
:10C47000FF05BA4682009244E0225746D200BA58DD
:10C4800003AF9203910F6246BA5C134200D10CE1F4
:10C49000022908D1019B032B00D16EE14B46002BF2
:10C4A00001D00199C8474223E1564B1C38D0C9B28C
:10C4B0000800B043C3089C462A00012367460A408F
:10C4C000934005AAD25D13422AD022182032127856
:10C4D000890952B29200A25801919146002A00D1D6
:10C4E00017E1032900D117E1A027FF05BA46820012
:10C4F0009244E0225746D200BA5803AF9203910FFC
:10C500006246BA5C134200D1B3E0022908D1019B14
:10C51000032B00D135E14B46002B01D00199C847D0
:10C520004323E1564B1C37D0C9B20800B043C308BF
:10C530009C462A00012367460A40934005AAD25D23
:10C54000134229D0221820321278890952B292005F
:10C55000A25801919146002A00D1CEE0032900D1D2
:10C56000CEE0A027FF05BA4682009244E02257465B
:10C57000D200BA5803AF9203910F6246BA5C1342DD
:10C580005AD0022908D1019B032B00D1FDE04B4674
:10C59000002B01D00199C8474346002B00D1B3E6D8
:10C5A000A022A223D205DB00D358039A9A4200D1DD
:10C5B000AAE60393049B0593F3E6C1221049920077
:10C5C000895804220A4200D193E6002117431960DA
:10C5D0008FE6C1220A499200895802220A4200D1FC
:10C5E00082E60021174319607EE6C04600610040E4
:10C5F00004610040086100400C6100407C61004023
:10C6000000600040F0200020C1201F00614C80002D
:10C6100020580740034200D161E611605FE6002226
:10C620001A60A022A223D205DB00D3580393002F67
:10C6300000D085E6584CAEE60329ADD1019B032B13
:10C64000A5D180239B029C46E0235246DB00D258B2
:10C6500052490A405146CA50CA5861460A43514697
:10C66000CA504B46002B9BD043460133DBB2984661
:10C6700090E7032900D053E7019B032B00D04AE742
:10C6800080239B029C46E0235246DB00D25843495C
:10C690000A405146CA50CA5861460A435146CA50D8
:10C6A00043460133DBB2984635E7032900D0FAE66A
:10C6B000019B032B00D0F1E680239B029C46E023E4
:10C6C0005246DB00D25835490A405146CA50CA5832
:10C6D00061460A435146CA5043460133DBB298468D
:10C6E000DCE6032900D0DEE6674604AAD75D1F43D7
:10C6F000BA4667465146D155B9E6032900D04BE703
:10C70000674604AAD75D1F43BA4667465146D155CE
:10C7100027E7032900D003E7674604AAD75D1F4334
:10C72000BA4667465146D155DEE65A46032A00D03E
:10C730007AE6674604AAD75D1F43B8466746414676
:10C74000D15550E65B46032B00D062E680239B0266
:10C750009C46E0234246DB00D25810490A4041463D
:10C76000CA50CA5861460A434146CA5001239846F6
:10C7700051E6C0239B029C46EBE7C0239B029C46EC
:10C780009DE7C0239B029C467DE7C0239B029C46FD
:10C790005AE7C04600600040F0200020FFFFFCFF89
:10C7A000C12330B55E4A9B00D35885B09B0559D54F
:10C7B00092235B00D158002954D00021D15081210F
:10C7C000E533FF338900D150564B997E002901D1C2
:10C7D00001315160022269460A7090215048C90017
:10C7E0004258425069460392DA7D68460A72DA6816
:10C7F00001920022DA751A760ACB98478E21484AB0
:10C8000049005358002B0FD0464B9C8A9D7DAC426B
:10C8100062D200205050998A9868405C998A013110
:10C8200089B29982404BD050A2233D4A5B00D15837
:10C83000002915D00021D1503A4B997E002901D012
:10C8400001211160DA7D002A0AD000226846012108
:10C85000DA755A7E01700272DA680ACB0192984743
:10C8600005B030BDC1232E4A9B00D3585B07C5D508
:10C87000842149005358002BC0D02A4BD87D002872
:10C8800038D000205050A320C000597E1258D868DC
:10C8900042545A7ED87D0132D2B25A765A7E8242B2
:10C8A000ACD11A7E002A2AD19A7E002A02D1012117
:10C8B0001B4A5160C2228120194992008000885091
:10C8C000002268460121DA755A7E01700272DA6828
:10C8D0000ACB0192984791E700205050002DA3D039
:10C8E0006A46107015729A689875019268460ACB6C
:10C8F000984799E75050A321C9005258CEE7DA75FE
:10C900001A69D968DA6000226C46587E1A765A761F
:10C91000013220722270684601910ACB98476DE778
:10C9200000200040382100201C05000073DF704704
:10C9300076DF70477ADF70477CDF70477FDF7047B4
:10C94000A8DF7047A9DF704767DF704748DF70478F
:10C9500010B5FEF76DFD10BD022010B5002902D004
:10C96000FFF716FA10BDFFF71FFAFBE710B50378C3
:10C97000002B00D010BD054B3B211888FFF7D8FFD6
:10C980000028F7D0FEF754FDF4E7C0465020002001
:10C9900010B5102802D0FEF74BFD10BD054800F081
:10C9A00007FF082302009A43F7D0034B9842F2D1C5
:10C9B000F3E7C046142200200230000010B50388BF
:10C9C000040086B03A2B2FD02AD8112B5CD013D973
:10C9D000132B08D13F4B0022188885210023FFF735
:10C9E000ADFF002819D1200000F004FD21003A48D5
:10C9F00000F0F8FD06B010BD022B34D0102BF2D1A0
:10CA00000120FFF7C5F90020FFF7CEF9A288314BCE
:10CA10001A80FEF7DBFC0028E5D0FEF709FDE2E70F
:10CA2000522B27D0552B06D11321A088FFF780FF6A
:10CA30000028D8D0F1E7512BD5D18379002BD2D063
:10CA4000827B043A022ACED8022B00D001236A4608
:10CA50001370C1235B0093806946A088FFF770FFC5
:10CA60000028C0D0D9E700218088FFF76DFF00289B
:10CA7000B9D0D2E7174B0022188800210023FFF716
:10CA800061FF0028AFD0C8E70120FFF78DF9012230
:10CA9000104B52421A80FEF7B1FC002817D1182221
:10CAA00000216846FEF7AAFB00236A466846137019
:10CAB0000193137240330493FFF738FF002803D12A
:10CAC0000020FFF765F98EE7FEF7B2FCF8E7FEF706
:10CAD000AFFCE4E7502000201422002030B5A3B0C2
:10CAE000FFF770F90023052100206E4AFEF7CCFF06
:10CAF000002800D0B2E001216B4A6C48FEF70CFC24
:10CB0000002800D0CBE06A4B48221B68694901939A
:10CB1000049304A8002300F0EDFE002800D0BBE041
:10CB20000121002013AA00F055FF002800D0B0E03A
:10CB300013A800F067FF002800D0A7E05E4800F0CF
:10CB400027FF002800D09EE011235C4C02AA13723C
:10CB5000200000F06EFF210082B204A8FFF7ECFE77
:10CB6000002800D08CE00822002113A8FEF746FB25
:10CB7000534B13A81393C8235B041493FFF7DAFEF7
:10CB800000287AD14F4D504B280013A9139300F081
:10CB900047FD00286ED14D4B03AC2380AB7C3C227B
:10CBA0000021A37004A8FEF729FB022302AA137236
:10CBB000474B0021538113A83C22FEF71FFB542151
:10CBC000012302AA5218138013A904A8189400F094
:10CBD00017FB00284BD11C22002113A8FEF70EFBE7
:10CBE000A02212031492A022502092020023159238
:10CBF000032202A9091813930A70522102AA52189B
:10CC00001380023102AA52181370324B13A81893E2
:10CC1000314B199300F0B2FB002825D118220021D6
:10CC200013A8FEF7EBFA4421002302AA521813704E
:10CC3000083102AA5218149313A8137040331793A3
:10CC4000FFF774FE00280CD10020FFF7A1F8FFF7D2
:10CC50007DFE0028FBD0FEF7EBFBF8E7FEF7E8FBD4
:10CC600049E7FEF7E5FBEFE7FEF7E2FBD6E7FEF765
:10CC7000DFFBB0E7FEF7DCFB8DE7FEF7D9FB81E7D2
:10CC8000FEF7D6FB6FE7FEF7D3FB5DE7FEF7D0FBC1
:10CC900054E7FEF7CDFB4BE7FEF7CAFB40E7FEF794
:10CCA000C7FB30E754210020660600004820002022
:10CCB00078DA0100CC210020BDC9010068DA01004A
:10CCC0005000A0001422002059C9010023150000C3
:10CCD000010600006DC9010051C9010071DF7047F4
:10CCE00072DF704779DF70477DDF704765DF70471F
:10CCF000F0B5DE4657464E464546E0B587B09B4602
:10CD000010AB914604CB07001B8890460193138813
:10CD1000029103930388002B00D16AE000239A4616
:10CD200004AB0025DE1C03E03B880135AB422EDD61
:10CD30007B68A9009C460422614405A800F070FEAF
:10CD40000022310005A8FFF7D1FF041E2CD1337853
:10CD50004B45E9D15346002B2ED043461A884B460B
:10CD60000199D3188B4246DC31005A4405A8FFF7DD
:10CD7000BDFF00283BD142463378128801359B180D
:10CD80004246138001239A463B88AB42D0DC53468F
:10CD9000002B2ED043461B88039A013B9B1A9BB263
:10CDA000FF2B28D859468B54200007B0F0BCBB4657
:10CDB000B246A946A046F0BD43464A461B880199A3
:10CDC0009A1802328A4216DC424601339BB2138023
:10CDD0005A46029905A8D15443461A8831000132B7
:10CDE00092B21A805A44FFF781FF0028C3D0040092
:10CDF000DAE70024D8E70C24D6E7C046F0B54E4663
:10CE00004546DE465746E0B5138814009946002390
:10CE100013802D33C25C05000E00002385B0002A6C
:10CE200000D0F8E0AA78002A00D0E9E0EA78002AE9
:10CE300014D0D91C494500D9E5E00221F1542388DA
:10CE4000013901339BB22380F154238801339BB213
:10CE50002380F254238801339BB223806A68002A1E
:10CE600015D0D91C494500D9CDE002211278F154E2
:10CE70002388083101339BB22380F154238852B2B6
:10CE800001339BB22380F2542388013323802B8902
:10CE9000002B00D0E9E02B8A002B00D01FE12B8B68
:10CEA000002B00D039E12B6A002B3FD02788BA1D18
:10CEB0004A4500D9A7E01A88052A00D88FE1A94978
:10CEC000A948511889B28046814200D887E1598823
:10CED000052900D883E1A34884468C44604680B28B
:10CEE000404500D87BE1A148824202D08A4200D965
:10CEF00075E105221221F2552288013292B2228078
:10CF0000B1542288013292B222801988B21811706D
:10CF1000090A51702288023292B222805988B218CE
:10CF20001170090A51702388023323806F6A002F21
:10CF30002BD0BA882088911C831C5B184B4562D883
:10CF4000FE2960D803323254FF22238801339BB27A
:10CF50002380F254238801339BB223803A88F3184C
:10CF60001A70120A5A702088023080B22080BA8863
:10CF7000002A0AD0B968002900D130E1301800F049
:10CF80004FFD2388BA889B1823802C23EB5C002B51
:10CF900000D0DDE02A780020002A35D02B88012B34
:10CFA00000D11CE12188881C48452CD8012A04D1D5
:10CFB0006B7802335B18994525D34B46023B5B1ACD
:10CFC0009FB26B4630181F8102A9FFF78DFE002823
:10CFD0001AD12B78022B00D10AE1012B00D100E1FC
:10CFE0000822FE2F0FD82388791CF154238801339F
:10CFF0009BB22380F25423880133FB18238003E083
:10D0000004334B454ED90C2005B0F0BCBB46B246AC
:10D01000A946A046F0BD4B46082BF4D902A8FFF75D
:10D020005DFE0028F0D10822092123886944F254CA
:10D030002388133201339BB22380F2542088153A9F
:10D04000013080B22080301800F0EAFC6A46238864
:10D05000127A06339BB22380002A00D00122F254B8
:10D06000238801339BB22380DCE62F004B46083730
:10D07000019302223300022138000094FFF738FEAA
:10D080000028C1D14B4610220193062133003800FD
:10D090000094FFF72DFE0028B6D12B8A002B00D17B
:10D0A000FDE61CE002A8FFF71DFE0028ACD103221C
:10D0B0002388F2542388163201339BB22380F25422
:10D0C0006A462388128901339BB22380F3181A70B1
:10D0D000120A5A70238802339BB22380A6E62F00DF
:10D0E0004B4610370193022233000321380000948D
:10D0F000FFF7FEFD002800D086E74B461022019383
:10D100000721330038000094FFF7F2FD002800D01B
:10D110007AE72B8B002B00D1C5E62F004B46183742
:10D12000019302223300142138000094FFF7E0FD40
:10D13000002800D068E74B461022019315213300E8
:10D1400038000094FFF7D4FD002800D1ABE65BE780
:10D15000AF6A002F43D00023984616339A46163301
:10D160009B4632E07FF3FFFF7DF30000FFFF0000EE
:10D1700022880333B3545246238801339BB2238061
:10D18000F254238801339BB223803A88F3181A7033
:10D19000120A5A702088023080B22080BA88002A91
:10D1A00009D0B96800291AD0301800F039FC23885A
:10D1B000BA889B18238043460133DBB298465B460E
:10D1C000EB5C434500D8E5E6AF6A43465B00434469
:10D1D0009B00FF18BB889A1CFE2AC9D913E70720B9
:10D1E00012E76B789F4200D2FAE61F000822F8E6A9
:10D1F0006B461B899F4200D2F2E61F000922F0E62F
:10D2000030B593B01F236A4604000D009380D3808D
:10D21000002821D0C3785B0725D501AA02A9FFF712
:10D22000EDFD002816D102AC002D18D0EB78002BB4
:10D2300019D16B4628009A1D0AA9FFF7DFFD0028C7
:10D2400008D16B469B790AAD6A46200011792A0005
:10D25000FFF746FD13B030BD9080002DE6D16B4640
:10D26000DD800023F0E70720F4E7C04675DF704754
:10D2700076DF70477ADF70477BDF704710B5184B59
:10D2800082B01888174B984214D0174A174C13785D
:10D290000133DBB21370217B99420DD2002313704E
:10D2A000237C002B12D16369002B03D0002201A83C
:10D2B0000270984702B010BD0D49FFF7D7FF002854
:10D2C000F8D0A369002BF5D09847F3E73B21FFF78F
:10D2D000CFFF0028E7D0A369002BE4D09847E2E70E
:10D2E00032220020FFFF0000802200203422002094
:10D2F0007822002030B51B4B1B4A5B88118883B015
:10D3000099420CD852889A4209D3184B5B69002B7A
:10D3100003D0012201A802709847154C0BE0144C71
:10D320002378002B0BD0114B5B69002B03D000221C
:10D3300001A8027098470023237003B030BD0D4B45
:10D340000A4D1B78002B0BD0A96800220A48FEF773
:10D3500045FC0028EFD0AB69002BECD09847EAE7FA
:10D360006968F2E770220020782200203422002031
:10D370003022002080220020502200201649020086
:10D380000B0070B532CA32C332CA32C312681A6097
:10D390000022124B01681A70002916D0104C083276
:10D3A000200000F03DFB2000FFF764FF00280BD1B8
:10D3B00001220C4B52421A8000220B4B00211A70A2
:10D3C0000A480B4AFEF7F4FB70BD0548FFF754FF0F
:10D3D0000028EDD0F8E7C04634220020302200209B
:10D3E0007822002032220020802200207CDA0100F6
:10D3F0007DD2010010B50388122B40D015D8102B18
:10D400002CD0112B10D10122204B52421A80002225
:10D410001F4B20481A70FEF741FC002804D01E4B19
:10D420009B69002B00D0984710BD502BFCD11A4CA3
:10D43000C288E3899A42F7D1038A022BF4D11230D1
:10D4400000F02EF8002817D11248FEF727FC00281C
:10D45000EAD0A369002BE7D09847E5E782880B4B19
:10D4600018301A800D4B06C806C30022084B1A70EC
:10D47000094BDB89002BD7D1FFF73CFFD4E7074BE3
:10D48000083006C806C3FFF735FFCDE7322200207B
:10D490008022002050220020342200207022002010
:10D4A000012300781840704703210A4802680A43A4
:10D4B0000260094802680A4302600849084A094BA9
:10D4C0009B1A03DD043BC858D050FBDC00F012F877
:10D4D000FDF720FE24050040540500409CDA0100C1
:10D4E000E81F002060200020FEE7FEE7FEE7FEE7E1
:10D4F000FEE7FEE72D4B1B78012B00D070472C4B2D
:10D500001B681B07FAD12B4AF0231268110019403F
:10D510001A4201D0102946D1274A12681A421FD058
:10D52000F022244B1B681340402B29D0F022214BC2
:10D530001B681340A02B01D0D02BDFD1F0231E4A53
:10D5400012681A42DAD11D4A1368012B04D01C4B11
:10D5500013601368012BFCD1C0221A4B1A60CDE76F
:10D56000194B1A4A1A608022194B12021A600F4B8B
:10D570001B78012BC2D10E4B1B681B07D0D0BDE717
:10D580000D4B1B681342D1D18022C1230121DB0046
:10D59000D205D150054B1B78012BAFD1044B1B6832
:10D5A0001B07C3D0AAE73029B6D0B9E7E00F00F0D7
:10D5B000E40F00F0E80F00F0EC0F00F000EC064084
:10D5C0007593000014EC064004050040DFFF07C01F
:10D5D000186C0040A0DF7047A2DF7047A6DF7047DD
:10D5E00063DF704710B50B88112B04D0502B09D086
:10D5F000102B04D010BD01235B428382FAE78B8895
:10D600008382F7E7CA8843889A42F3D10B8A012BB9
:10D61000F0D18369002BEDD0897C9847EAE7C046BA
:10D62000F0B5DE464E46454657460123E0B55B421F
:10D6300083820B6895B08361050004A80200584BF3
:10D6400052CB52C229001B6812311360FFF7C8FF8A
:10D65000041E07D0200015B0F0BCBB46B246A94658
:10D66000A046F0BD6A46AB7C012093724D4B02A9E7
:10D6700013812A00FFF7AEFF041EEBD10322002125
:10D680006846FDF7BBFD112398466B4642461A706B
:10D690005A709B780B3A9343022291464A461343B1
:10D6A0006A46002193700DA81C22FDF7A7FD3421C6
:10D6B0006B4612225B181B7803AF934313436A46F1
:10D6C000521813706B461293AB7C01AEBB70364B95
:10D6D0000322002130000E941094119413943B8087
:10D6E000FDF78CFD43461F223370B3789246934377
:10D6F0004A460021134308A814227470B370FDF742
:10D700007DFD01239B460A935A466B46089709966E
:10D710009A852B000C940DAC210028880A3308AAA6
:10D72000FFF75AFF041E95D11C2200210DA8FDF71A
:10D7300065FD34216B460A225B181B783000934349
:10D7400013436A4652181370AB7C0322BB70174B0D
:10D7500000210E9410941194129413943B80FDF7C1
:10D760004DFD4346524633707370B37800219343A6
:10D770004A4608A813431422B370FDF73FFD5B46E9
:10D780005A460A936B460897099628889A850DA9E8
:10D79000AB1C08AA0C94FFF71FFF04005AE7C04611
:10D7A00080DA010023150000241500002515000073
:10D7B00070B588B06B460E25DE1DD97101230400BB
:10D7C0006D441022002104A82B80FDF717FD6A4646
:10D7D00001239374638904A91382A08A079606958E
:10D7E000FFF7FCFE08B070BD52DF704710DF7047D6
:10D7F00060DF704761DF704710B5FDF729FE10BD8F
:10D80000F0B54646D6464F46C0B5324B324D9846E7
:10D810001B6882B05C425C412B78E4B2002B2DD1B6
:10D820002E4B01A899462E4EFFF7DEFF052837D074
:10D83000002838D0FDF7FCFD002C28D100239A46A3
:10D840002B78DCB2002B19D14B466A461B8837680F
:10D850009380380001A9FFF7CDFF052814D00028D8
:10D860002ED1434638001B6898475346002B0FD0F3
:10D8700001239A462B78DCB2002BE5D002B0E0BC45
:10D88000BA46B146A846F0BD5346002BF6D1012456
:10D890002B78002BF2D101A8FFF7A6FF0528C7D1EE
:10D8A000002CE5D0EAE70198FEF7EEFA0D4B1B6875
:10D8B000002B01D001989847002CBFD00124E7E746
:10D8C000FDF7B6FD5346002BD2D12B78002BE2D0CA
:10D8D000D4E7C046842200208D220020822200202E
:10D8E0009422002090220020014B1878C0B270478B
:10D8F0008C22002070B5002931D08C072FD1012552
:10D900001B4C21601B491C4C0A801C4A1360236875
:10D910001D4208D080231A49E550FFF767FF002811
:10D9200006D0256070BD1649FFF760FF0028F9D1C9
:10D930000124144B1C70FEF7B9FAC5230E4A9B0054
:10D94000D3589B0D1C420CD00F4B586800280AD0AE
:10D9500080221968D2030A4300201A60E2E70720F8
:10D96000E0E70A48DEE78023DB031360DAE7C0461E
:10D97000942200208222002000E100E08822002082
:10D98000F9D701008C220020D420002002200000C2
:10D99000002803D0024B1860002070470E20FCE7DF
:10D9A0008422002010B5094B1B68002B06D0984735
:10D9B000002800D110BDFDF73BFDFBE7044B1B78B1
:10D9C000002BF7D0FFF71CFFF4E7C04688220020A9
:10D9D0008C22002070B5140005000E0014220021D6
:10D9E0002000FDF70BFC002301222361237B228012
:10D9F0009343237326726572002D01D00123A37215
:10DA0000002070BD00B5054B83B00193019B6946B2
:10DA10000093FFF7EDFE019B03B000BDE81F00205F
:10DA2000002310B59A4200D110BDCC5CC454013320
:10DA3000F8E70023C25C0133002AFBD1581E70476F
:10DA4000F8B5C046F8BC08BC9E467047F8B5C0465D
:10DA5000F8BC08BC9E467047E81F002084200020C8
:10DA600012131415160000004E6F726469635F4252
:10DA70006C696E6B790000000100000750220020E5
:10DA800023D1BCEA5F782315DEEF121200000000FC
:04DA90000000000092
:08DA940074D6FF7F01000000C1
:10DA9C00000000000000000000000000000000007A
:10DAAC00000000000000000000000000000000006A
:10DABC00000000000000000000000000000000005A
:10DACC00000000000000000000000000000000004A
:10DADC00000000000000000000000000000000003A
:10DAEC00000000000000000000000000000000002A
:10DAFC001000030091C90100FFFF00000024F40096
:08DB0C00E9B00100C1B0010005
:040000031000D4A96C
:00000001FF
